{
  "_format": "hh-sol-artifact-1",
  "contractName": "Transactions",
  "sourceName": "contracts/Transaction.sol",
  "abi": [
    {
      "anonymous": false,
      "inputs": [
        {
          "indexed": false,
          "internalType": "address",
          "name": "from",
          "type": "address"
        },
        {
          "indexed": false,
          "internalType": "address",
          "name": "reciever",
          "type": "address"
        },
        {
          "indexed": false,
          "internalType": "uint256",
          "name": "amount",
          "type": "uint256"
        },
        {
          "indexed": false,
          "internalType": "string",
          "name": "message",
          "type": "string"
        },
        {
          "indexed": false,
          "internalType": "uint256",
          "name": "timestamp",
          "type": "uint256"
        },
        {
          "indexed": false,
          "internalType": "string",
          "name": "keyword",
          "type": "string"
        }
      ],
      "name": "transfer",
      "type": "event"
    },
    {
      "inputs": [
        {
          "internalType": "address payable",
          "name": "reciever",
          "type": "address"
        },
        {
          "internalType": "uint256",
          "name": "amount",
          "type": "uint256"
        },
        {
          "internalType": "string",
          "name": "message",
          "type": "string"
        },
        {
          "internalType": "string",
          "name": "keyword",
          "type": "string"
        }
      ],
      "name": "addToBlockchain",
      "outputs": [],
      "stateMutability": "nonpayable",
      "type": "function"
    },
    {
      "inputs": [],
      "name": "getAllTransfers",
      "outputs": [
        {
          "components": [
            {
              "internalType": "address",
              "name": "from",
              "type": "address"
            },
            {
              "internalType": "address",
              "name": "reciever",
              "type": "address"
            },
            {
              "internalType": "uint256",
              "name": "amount",
              "type": "uint256"
            },
            {
              "internalType": "string",
              "name": "message",
              "type": "string"
            },
            {
              "internalType": "uint256",
              "name": "timestamp",
              "type": "uint256"
            },
            {
              "internalType": "string",
              "name": "keyword",
              "type": "string"
            }
          ],
          "internalType": "struct Transactions.TransferStruct[]",
          "name": "",
          "type": "tuple[]"
        }
      ],
      "stateMutability": "view",
      "type": "function"
    },
    {
      "inputs": [],
      "name": "getTransactionCount",
      "outputs": [
        {
          "internalType": "uint256",
          "name": "",
          "type": "uint256"
        }
      ],
      "stateMutability": "view",
      "type": "function"
    }
  ],
  "bytecode": "0x608060405234801561001057600080fd5b50610bce806100206000396000f3fe608060405234801561001057600080fd5b50600436106100415760003560e01c80632e7700f01461004657806354b4aa4a14610064578063cc2d7ead14610082575b600080fd5b61004e61009e565b60405161005b9190610279565b60405180910390f35b61006c6100a7565b60405161007991906104c6565b60405180910390f35b61009c6004803603810190610097919061069b565b6100ac565b005b60008054905090565b606090565b60016000808282546100be9190610769565b9250508190555060016040518060c001604052803373ffffffffffffffffffffffffffffffffffffffff1681526020018673ffffffffffffffffffffffffffffffffffffffff16815260200185815260200184815260200142815260200183815250908060018154018082558091505060019003906000526020600020906006020160009091909190915060008201518160000160006101000a81548173ffffffffffffffffffffffffffffffffffffffff021916908373ffffffffffffffffffffffffffffffffffffffff16021790555060208201518160010160006101000a81548173ffffffffffffffffffffffffffffffffffffffff021916908373ffffffffffffffffffffffffffffffffffffffff1602179055506040820151816002015560608201518160030190816101f691906109a9565b506080820151816004015560a082015181600501908161021691906109a9565b5050507fdcd5b98ff1303a62dc4d27f8de74930f71856fbd87f72321094e86707a6197fc33858585428660405161025296959493929190610b29565b60405180910390a150505050565b6000819050919050565b61027381610260565b82525050565b600060208201905061028e600083018461026a565b92915050565b600081519050919050565b600082825260208201905092915050565b6000819050602082019050919050565b600073ffffffffffffffffffffffffffffffffffffffff82169050919050565b60006102eb826102c0565b9050919050565b6102fb816102e0565b82525050565b61030a81610260565b82525050565b600081519050919050565b600082825260208201905092915050565b60005b8381101561034a57808201518184015260208101905061032f565b60008484015250505050565b6000601f19601f8301169050919050565b600061037282610310565b61037c818561031b565b935061038c81856020860161032c565b61039581610356565b840191505092915050565b600060c0830160008301516103b860008601826102f2565b5060208301516103cb60208601826102f2565b5060408301516103de6040860182610301565b50606083015184820360608601526103f68282610367565b915050608083015161040b6080860182610301565b5060a083015184820360a08601526104238282610367565b9150508091505092915050565b600061043c83836103a0565b905092915050565b6000602082019050919050565b600061045c82610294565b610466818561029f565b935083602082028501610478856102b0565b8060005b858110156104b457848403895281516104958582610430565b94506104a083610444565b925060208a0199505060018101905061047c565b50829750879550505050505092915050565b600060208201905081810360008301526104e08184610451565b905092915050565b6000604051905090565b600080fd5b600080fd5b6000610507826102c0565b9050919050565b610517816104fc565b811461052257600080fd5b50565b6000813590506105348161050e565b92915050565b61054381610260565b811461054e57600080fd5b50565b6000813590506105608161053a565b92915050565b600080fd5b600080fd5b7f4e487b7100000000000000000000000000000000000000000000000000000000600052604160045260246000fd5b6105a882610356565b810181811067ffffffffffffffff821117156105c7576105c6610570565b5b80604052505050565b60006105da6104e8565b90506105e6828261059f565b919050565b600067ffffffffffffffff82111561060657610605610570565b5b61060f82610356565b9050602081019050919050565b82818337600083830152505050565b600061063e610639846105eb565b6105d0565b90508281526020810184848401111561065a5761065961056b565b5b61066584828561061c565b509392505050565b600082601f83011261068257610681610566565b5b813561069284826020860161062b565b91505092915050565b600080600080608085870312156106b5576106b46104f2565b5b60006106c387828801610525565b94505060206106d487828801610551565b935050604085013567ffffffffffffffff8111156106f5576106f46104f7565b5b6107018782880161066d565b925050606085013567ffffffffffffffff811115610722576107216104f7565b5b61072e8782880161066d565b91505092959194509250565b7f4e487b7100000000000000000000000000000000000000000000000000000000600052601160045260246000fd5b600061077482610260565b915061077f83610260565b92508282019050808211156107975761079661073a565b5b92915050565b7f4e487b7100000000000000000000000000000000000000000000000000000000600052602260045260246000fd5b600060028204905060018216806107e457607f821691505b6020821081036107f7576107f661079d565b5b50919050565b60008190508160005260206000209050919050565b60006020601f8301049050919050565b600082821b905092915050565b60006008830261085f7fffffffffffffffffffffffffffffffffffffffffffffffffffffffffffffffff82610822565b6108698683610822565b95508019841693508086168417925050509392505050565b6000819050919050565b60006108a66108a161089c84610260565b610881565b610260565b9050919050565b6000819050919050565b6108c08361088b565b6108d46108cc826108ad565b84845461082f565b825550505050565b600090565b6108e96108dc565b6108f48184846108b7565b505050565b5b818110156109185761090d6000826108e1565b6001810190506108fa565b5050565b601f82111561095d5761092e816107fd565b61093784610812565b81016020851015610946578190505b61095a61095285610812565b8301826108f9565b50505b505050565b600082821c905092915050565b600061098060001984600802610962565b1980831691505092915050565b6000610999838361096f565b9150826002028217905092915050565b6109b282610310565b67ffffffffffffffff8111156109cb576109ca610570565b5b6109d582546107cc565b6109e082828561091c565b600060209050601f831160018114610a135760008415610a01578287015190505b610a0b858261098d565b865550610a73565b601f198416610a21866107fd565b60005b82811015610a4957848901518255600182019150602085019450602081019050610a24565b86831015610a665784890151610a62601f89168261096f565b8355505b6001600288020188555050505b505050505050565b610a84816102e0565b82525050565b6000610aa5610aa0610a9b846102c0565b610881565b6102c0565b9050919050565b6000610ab782610a8a565b9050919050565b6000610ac982610aac565b9050919050565b610ad981610abe565b82525050565b600082825260208201905092915050565b6000610afb82610310565b610b058185610adf565b9350610b1581856020860161032c565b610b1e81610356565b840191505092915050565b600060c082019050610b3e6000830189610a7b565b610b4b6020830188610ad0565b610b58604083018761026a565b8181036060830152610b6a8186610af0565b9050610b79608083018561026a565b81810360a0830152610b8b8184610af0565b905097965050505050505056fea2646970667358221220f17546d9eb12ab3ab1155d10898c86aa72340570cd5565d488f02d1e55f66cae64736f6c63430008110033",
  "linkReferences": {},
  "deployedLinkReferences": {}
}